:020000040800F2
:1000000000040020C1010008D12E0008D12E0008F4
:10001000E1220008D12E0008D12E0008D12E0008C0
:10002000D12E0008D12E0008D12E0008B14E0008B4
:10003000D12E0008D12E0008D12E000831AF0008C3
:10004000D12E0008E181000871830008C1830008F7
:10005000D12E0008D12E0008217F0008717F0008F2
:10006000C17F0008118000086180000861740008E9
:10007000B17400080175000851750008A1750008E9
:10008000F175000841760008917D0008618500083F
:10009000D18500088186000831870008B1800008FA
:1000A000D12E0008D12E000891A90008D12E0008F9
:1000B000F1AA000831AB000871AB000831930008C9
:1000C00071940008D12E0008D12E0008D12E00080E
:1000D000D12E0008D12E0008D12E0008F1AF000863
:1000E000418100083182000881820008D12E000879
:1000F000D12E0008D1A90008D12E00089176000861
:10010000D12E0008C1880008B1AB0008D12E00082C
:10011000D12E0008D12E000851A90008D12E0008C8
:10012000E17600083177000881770008D177000870
:1001300021780008D12E0008D1820008D12E0008B5
:10014000D12E0008D12E0008D12E0008F1A20008FF
:1001500071780008C178000811790008D12E0008D4
:10016000D12E0008D12E0008D12E0008D12E000873
:1001700021830008D12E000871140008D12E000838
:10018000D12E0008D12E0008D12E0008D12E000853
:10019000D12E0008D12E0008D12E0008D12E000843
:1001A000D12E0008D12E0008D12E0008D12E000833
:1001B000D12E0008D12E0008D12E0008D12E000823
:1001C00072B62E4880F3098840F20000CCF200009D
:1001D0004EF63471CEF20001086040F20000C0F229
:1001E000F0004EF68851CEF2000108604FF000009A
:1001F000E1EE100A4EF63C71CEF2000108600620D6
:1002000080F31488BFF36F8F0AF0E2FF4FF0553090
:100210001B491C4A91423CBF41F8040BFAE71A49BA
:10022000164A91423CBF41F8040BFAE71749184AB5
:10023000184B9A423EBF51F8040B42F8040BF8E702
:1002400000201549154A91423CBF41F8040BFAE7DA
:1002500002F026FE124C134DAC4203DA54F8041B94
:100260008847F9E701F044F80F4C104DAC4203DA2F
:1002700054F8041B8847F9E702F022BE000800206A
:10028000000000200004002000040020B801010844
:1002900000080020EC110020F0110020E04A0020AE
:1002A000C0010008C0010008C0010008C00100082A
:1002B0002DE9F04F2DED108AC1F80CD0D0F80CD0FC
:1002C000BDEC108ABDE8F08F02F042FF03F048FF5A
:1002D000002383F311882846A047002003F010FD77
:1002E00003F026FF02F014FF03F032FB02F030FFB0
:1002F00003F036FF00DFFEE7000000000000000012
:1003000081F0004102E000BF83F0004330B54FEAC6
:1003100041044FEA430594EA050F08BF90EA020F33
:100320001FBF54EA000C55EA020C7FEA645C7FEAC6
:10033000655C00F0E2804FEA5454D4EB5555B8BFE9
:100340006D420CDD2C4480EA020281EA030382EA5A
:10035000000083EA010180EA020281EA0303362DEC
:1003600088BF30BD11F0004F4FEA01314FF4801CBF
:100370004CEA113102D0404261EB410113F0004FD1
:100380004FEA03334CEA133302D0524263EB430388
:1003900094EA050F00F0A780A4F10104D5F1200E26
:1003A0000DDB02FA0EFC22FA05F2801841F1000181
:1003B00003FA0EF2801843FA05F359410EE0A5F155
:1003C00020050EF1200E012A03FA0EFC28BF4CF086
:1003D000020C43FA05F3C01851EBE37101F000453C
:1003E00007D54FF0000EDCF1000C7EEB00006EEB49
:1003F0000101B1F5801F1BD3B1F5001F0CD34908D3
:100400005FEA30004FEA3C0C04F101044FEA445229
:1004100012F5800F80F09A80BCF1004F08BF5FEAB0
:10042000500C50F1000041EB045141EA050130BD90
:100430005FEA4C0C404141EB010111F4801FA4F133
:100440000104E9D191F0000F04BF01460020B1FA88
:1004500081F308BF2033A3F10B03B3F120020CDAC0
:100460000C3208DD02F1140CC2F10C0201FA0CF09E
:1004700021FA02F10CE002F11402D8BFC2F1200C03
:1004800001FA02F120FA0CFCDCBF41EA0C019040B9
:10049000E41AA2BF01EB0451294330BD6FEA040402
:1004A0001F3C1CDA0C340EDC04F11404C4F12002ED
:1004B00020FA04F001FA02F340EA030021FA04F3FF
:1004C00045EA030130BDC4F10C04C4F1200220FA56
:1004D00002F001FA04F340EA0300294630BD21FA94
:1004E00004F0294630BD94F0000F83F4801306BF5A
:1004F00081F480110134013D4EE77FEA645C18BF4E
:100500007FEA655C29D094EA050F08BF90EA020FE4
:1005100005D054EA000C04BF1946104630BD91EADC
:10052000030F1EBF0021002030BD5FEA545C05D1DF
:100530004000494128BF41F0004130BD14F580041E
:100540003CBF01F5801130BD01F0004545F0FE4192
:1005500041F470014FF0000030BD7FEA645C1ABFC7
:10056000194610467FEA655C1CBF0B46024650EAFE
:10057000013406BF52EA033591EA030F41F400212A
:1005800030BD00BF90F0000F04BF0021704730B5B0
:100590004FF4806404F132044FF000054FF0000185
:1005A00050E700BF90F0000F04BF0021704730B546
:1005B0004FF4806404F1320410F0004548BF40421B
:1005C0004FF000013EE700BF42004FEAE2014FEA70
:1005D00031014FEA02701FBF12F07F4393F07F4F4B
:1005E00081F06051704732F07F4208BF704793F04E
:1005F0007F4F04BF41F40021704730B54FF4607461
:1006000001F0004521F000411CE700BF50EA010263
:1006100008BF704730B54FF000050AE050EA01020C
:1006200008BF704730B511F0004502D5404261EB7C
:1006300041014FF4806404F132045FEA915C3FF4BD
:10064000D8AE4FF003025FEADC0C18BF03325FEA5A
:10065000DC0C18BF033202EBDC02C2F1200300FA0B
:1006600003FC20FA02F001FA03FE40EA0E0021FA30
:1006700002F11444BDE600BF0000000000000000CD
:1006800070B54FF0FF0C4CF4E06C1CEA11541DBF28
:100690001CEA135594EA0C0F95EA0C0F00F0DEF8F3
:1006A0002C4481EA030621EA4C5123EA4C5350EAD8
:1006B000013518BF52EA033541F4801143F4801329
:1006C00038D0A0FB02CE4FF00005E1FB02E506F0BA
:1006D0000042E0FB03E54FF00006E1FB03569CF00F
:1006E000000F18BF4EF0010EA4F1FF04B6F5007F15
:1006F00064F5407404D25FEA4E0E6D4146EB060687
:1007000042EAC62141EA55514FEAC52040EA5E500F
:100710004FEACE2EB4F1FD0C88BFBCF5E06F1ED8B9
:10072000BEF1004F08BF5FEA500E50F1000041EBF0
:10073000045170BD06F0004646EA010140EA02009D
:1007400081EA0301B4EB5C04C2BFD4EB0C0541EABF
:10075000045170BD41F480114FF0000E013C00F3D4
:10076000AB8014F1360FDEBF002001F0004170BDF8
:10077000C4F10004203C35DA0C341BDC04F1140411
:10078000C4F1200500FA05F320FA04F001FA05F29D
:1007900040EA020001F0004221F0004110EBD3706A
:1007A00021FA04F642EB06015EEA430E08BF20EA96
:1007B000D37070BDC4F10C04C4F1200500FA04F339
:1007C00020FA05F001FA04F240EA020001F00041CB
:1007D00010EBD37041F100015EEA430E08BF20EA3E
:1007E000D37070BDC4F1200500FA05F24EEA020E86
:1007F00020FA04F301FA05F243EA020321FA04F0B5
:1008000001F0004121FA04F220EA020000EBD3706B
:100810005EEA430E08BF20EAD37070BD94F0000F6B
:100820000FD101F00046400041EB010111F4801F9F
:1008300008BF013CF7D041EA060195F0000F18BF50
:10084000704703F00046520043EB030313F4801F8C
:1008500008BF013DF7D043EA0603704794EA0C0F46
:100860000CEA135518BF95EA0C0F0CD050EA41065C
:1008700018BF52EA4306D1D181EA030101F00041D9
:100880004FF0000070BD50EA410606BF1046194601
:1008900052EA430619D094EA0C0F02D150EA01360D
:1008A00013D195EA0C0F05D152EA03361CBF10464E
:1008B00019460AD181EA030101F0004141F0FE41ED
:1008C00041F470014FF0000070BD41F0FE4141F471
:1008D000780170BD70B54FF0FF0C4CF4E06C1CEA71
:1008E00011541DBF1CEA135594EA0C0F95EA0C0F26
:1008F00000F0A7F8A4EB050481EA030E52EA0335E1
:100900004FEA013100F088804FEA03334FF0805501
:1009100045EA131343EA12634FEA022245EA11152E
:1009200045EA10654FEA00260EF000419D4208BFDF
:10093000964244F1FD0404F5407402D25B084FEA8C
:100940003202B61A65EB03055B084FEA32024FF438
:1009500080104FF4002CB6EB020E75EB030E22BF95
:10096000B61A754640EA0C005B084FEA3202B6EB55
:10097000020E75EB030E22BFB61A754640EA5C0004
:100980005B084FEA3202B6EB020E75EB030E22BF94
:10099000B61A754640EA9C005B084FEA3202B6EB95
:1009A000020E75EB030E22BFB61A754640EADC0054
:1009B00055EA060E18D04FEA051545EA16754FEAB6
:1009C00006164FEAC30343EA52734FEAC2025FEAD4
:1009D0001C1CC0D111F4801F0BD141EA00014FF063
:1009E00000004FF0004CB6E711F4801F04BF014334
:1009F0000020B4F1FD0C88BFBCF5E06F3FF6AFAE50
:100A0000B5EB030C04BFB6EB020C5FEA500C50F1DF
:100A1000000041EB045170BD0EF0004E4EEA113162
:100A200014EB5C04C2BFD4EB0C0541EA045170BD69
:100A300041F480114FF0000E013C90E645EA060EAD
:100A40008DE60CEA135594EA0C0F08BF95EA0C0FDB
:100A50003FF43BAF94EA0C0F0AD150EA01347FF423
:100A600034AF95EA0C0F7FF425AF104619462CE7FA
:100A700095EA0C0F06D152EA03353FF4FDAE10465D
:100A8000194622E750EA410618BF52EA43067FF4AE
:100A9000C5AE50EA41047FF40DAF52EA43057FF43E
:100AA000EBAE12E7000000000000000000000000B4
:100AB0004FEA410212F5001215D211D56FF4787386
:100AC000B3EB625212D94FEAC12343F0004343EA29
:100AD000505311F0004F23FA02F018BF4042704704
:100AE0004FF00000704750EA013005D111F000408E
:100AF00008BF6FF0004070474FF00000704700BF24
:100B00004FEA4102B2F1E04324BFB3F5001CDCF12F
:100B1000FE5C0DD901F0004C4FEAC0024CEA507067
:100B2000B2F1004F40EB830008BF20F00100704796
:100B300011F0804F21D113F13872BCBF01F0004099
:100B4000704741F480114FEA5252C2F11802C2F1CB
:100B5000200C10FA0CF320FA02F018BF40F001004C
:100B60004FEAC1234FEAD32303FA0CFC40EA0C00FE
:100B700023FA02F34FEA4303CCE77FEA625307D13B
:100B800050EA01331EBF4FF0FE4040F44000704772
:100B900001F0004040F0FE4040F40000704700BF0C
:100BA00053B94AB9002908BF00281CBF4FF0FF31D4
:100BB0004FF0FF3000F074B9ADF1080C6DE904CED0
:100BC00000F006F8DDF804E0DDE9022304B0704728
:100BD0002DE9F047089E04468846002B4BD18A42F7
:100BE000154667D9B2FA82F24AB1C2F1200701FA7A
:100BF00002F320FA07F7954047EA030894404FEACA
:100C0000154E230CB8FBFEF71FFA85FC0EFB178868
:100C100043EA084307FB0CF1994209D9EB1807F1A5
:100C2000FF3080F01B81994240F21881023F2B4433
:100C30005B1AA4B2B3FBFEF00EFB103344EA03448C
:100C400000FB0CFCA44509D92C1900F1FF3380F0FE
:100C50000781A44540F2048102382C4440EA074051
:100C6000A4EB0C0400271EB1D4400023C6E90043C6
:100C70003946BDE8F0878B4209D9002E00F0EB80A1
:100C80000027C6E9000138463946BDE8F087B3FAC7
:100C900083F7002F47D18B4202D3824200F2FA80C1
:100CA000841A61EB030301209846002EE0D0C6E9C8
:100CB0000048DDE702B9FFDEB2FA82F2002A40F016
:100CC0008F80491B4FEA154E1FFA85F80127B1FBAB
:100CD000FEFC230C0EFB1C1143EA014308FB0CF144
:100CE000994207D9EB180CF1FF3002D2994200F279
:100CF000CD808446591AA3B2B1FBFEF00EFB10144E
:100D000043EA044408FB00F8A04507D92C1900F178
:100D1000FF3302D2A04500F2B6801846A4EB0804C7
:100D200040EA0C409FE7C7F1200CBB4022FA0CFEC2
:100D30004EEA030E01FA07F420FA0CF521FA0CF33F
:100D40004FEA1E482543B3FBF8F92C0C08FB193376
:100D50001FFA8EFA44EA034309FB0AF49C4202FAA2
:100D600007F200FA07F10BD91EEB030309F1FF307C
:100D700080F087809C4240F28480A9F1020973448C
:100D80001B1BADB2B3FBF8F008FB103345EA03447C
:100D900000FB0AFAA24508D91EEB040400F1FF3358
:100DA0006BD2A24569D90238744440EA0940A0FBDD
:100DB0000289A4EB0A044C45C2464B4654D351D099
:100DC000002E69D0B1EB0A0564EB030404FA0CFCB5
:100DD000FD40FC404CEA0505C6E90054002747E702
:100DE000C2F1200320FA03F7954001FA02F021FA3C
:100DF00003F34FEA154E3843010CB3FBFEF71FFA1D
:100E000085F80EFB173341EA034107FB08F38B42D9
:100E100004FA02F407D9691807F1FF3C2FD28B427C
:100E20002DD9023F2944CB1A81B2B3FBFEF00EFB51
:100E3000103341EA034100FB08F38B4207D96918DC
:100E400000F1FF3C17D28B4215D902382944C91A48
:100E500040EA07473BE73746304609E70746E7E6FB
:100E60001846FBE64145ABD2B8EB020A69EB0E022D
:100E700001381346A4E76046E9E7184695E7674658
:100E8000D1E781467CE702382C4447E7ACF1020CFD
:100E90002B442FE7384608E73746E9E60000000014
:100EA000704700BF000000000000000000000000CC
:100EB000844641EA000313F003036DD1403A41D365
:100EC00051F8043B40F8043B51F8043B40F8043B24
:100ED00051F8043B40F8043B51F8043B40F8043B14
:100EE00051F8043B40F8043B51F8043B40F8043B04
:100EF00051F8043B40F8043B51F8043B40F8043BF4
:100F000051F8043B40F8043B51F8043B40F8043BE3
:100F100051F8043B40F8043B51F8043B40F8043BD3
:100F200051F8043B40F8043B51F8043B40F8043BC3
:100F300051F8043B40F8043B51F8043B40F8043BB3
:100F4000403ABDD2303211D351F8043B40F8043B53
:100F500051F8043B40F8043B51F8043B40F8043B93
:100F600051F8043B40F8043B103AEDD20C3205D363
:100F700051F8043B40F8043B043AF9D2043208D05B
:100F8000D2071CBF11F8013B00F8013B01D30B88CD
:100F900003806046704700BF082A13D38B078DD0AB
:100FA00010F003038AD0C3F10403D21ADB071CBF7D
:100FB00011F8013B00F8013B80D331F8023B20F8E7
:100FC000023B7BE7043AD9D3013A11F8013B00F820
:100FD000013BF9D20B7803704B7843708B788370A8
:100FE00060467047000000000000000000000000A4
:100FF00090F800F06DE9024520F007016FF0000C59
:1010000010F0070491F820F040F049804FF0000400
:101010006FF00700D1E9002391F840F000F10800DB
:1010200082FA4CF2A4FA8CF283FA4CF3A2FA8CF313
:101030004BBBD1E9022382FA4CF200F10800A4FA7A
:101040008CF283FA4CF3A2FA8CF3E3B9D1E90423CE
:1010500082FA4CF200F10800A4FA8CF283FA4CF305
:10106000A2FA8CF37BB9D1E9062301F1200182FABF
:101070004CF200F10800A4FA8CF283FA4CF3A2FAC5
:101080008CF3002BC6D0002A04BF04301A4612BAD3
:10109000B2FA82F2FDE8024500EBD2007047D1E9D6
:1010A000002304F00305C4F100004FEAC50514F065
:1010B000040F91F840F00CFA05F562EA05021CBF36
:1010C00063EA050362464FF00004A9E70000000050
:1010D00001F0FF01102A2BDB10F0070F08D010F8E9
:1010E000013B013A8B422DD010F0070F42B3F6D1ED
:1010F000F0B441EA012141EA014122F007047FF006
:1011000000070023F0E80256083C85EA010586EA5C
:10111000010685FA47F5A3FA87F586FA47F6A5FA98
:1011200087F68EB9EED1F0BC01F0FF0102F00702A4
:1011300032B110F8013B013A83EA010313B1F8D14F
:101140000020704701387047002D06BF3546033830
:10115000073815F0010F07D1013015F4807F02BF69
:10116000013015F4C03F0130F0BC0138704700BFBA
:101170004FF0FF3C06E000BF4FF0010C02E000BF63
:101180004FF0010C4DF804CD4FEA410C7FEA6C5C46
:101190004FEA430C18BF7FEA6C5C1BD001B050EAE9
:1011A000410C0CBF52EA430C91EA030F02BF90EAD4
:1011B000020F0020704710F1000F91EA030F58BF93
:1011C000994208BF90422CBFD8176FEAE37040F0F5
:1011D000010070474FEA410C7FEA6C5C02D150EA93
:1011E000013C07D14FEA430C7FEA6C5CD6D152EA4E
:1011F000033CD3D05DF8040B704700BF8446104613
:1012000062468C461946634600E000BF01B5FFF711
:10121000B7FF002848BF10F1000F01BD4DF808EDE1
:10122000FFF7F4FF0CBF012000205DF808FB00BFB2
:101230004DF808EDFFF7EAFF34BF012000205DF80C
:1012400008FB00BF4DF808EDFFF7E0FF94BF012059
:1012500000205DF808FB00BF4DF808EDFFF7CEFF5A
:1012600094BF012000205DF808FB00BF4DF808ED99
:10127000FFF7C4FF34BF012000205DF808FB00BF6A
:101280004FEA410C7FEA6C5C02D150EA013C0AD182
:101290004FEA430C7FEA6C5C02D152EA033C02D174
:1012A0004FF0000070474FF0010070470000000051
:1012B0000EB410B50A4C0B4923680B4883B0019358
:1012C00006AB1A46009309F0DBFF019A23689A42A5
:1012D00004D103B0BDE8104003B0704700F048F8F7
:1012E0000008002070F100087C3800200000000099
:1012F00000B51C4B1C4C1B681C4E83B0254601934B
:1013000003F036FE01F0FCFD00F092FF00F0F8FE65
:1013100001F02EFC01F0ECF9002001F089FA002028
:1013200001F0AEFA01F0DCFC0BE04FF47A7002F051
:1013300027FC0021084600F08BFE4FF47A7002F083
:101340001FFC0121002000F083FED4F854321B68FA
:101350001B78042BE9D1052231462846FFF7A8FF68
:10136000E3E700BF000800207C38002070F100088F
:1013700000B5084B83B01A680192019A1B689A4223
:1013800005D1054803B05DF804EB01F021BEFFF77D
:10139000EFFF00BF0008002050F10008000000002F
:1013A00030B5104D81682B680F4A83B001930B68EC
:1013B00023F001030B608168946A03E0936A1B1BAE
:1013C000C72B09D8086810F00100F7D1019A2B68E3
:1013D0009A4204D103B030BD4FF0FF30F6E7FFF77B
:1013E000C7FF00BF00080020203B002000000000D5
:1013F00070B51C4E82B03368019311F00C0F0D468E
:10140000044610D0C268117A52683D238B401360A5
:101410000378032B21D0062263682270DB6813B1A6
:10142000002120469847AA060BD563685B6873B114
:1014300001993268914213D1204602B0BDE8704054
:101440001847EB0603D563689B68002BF0D1019A1F
:1014500033689A4204D102B070BDFFF7A1FFDAE70A
:10146000FFF786FF000800200000000000000000D9
:10147000F0B5284D83B02B68019302F021FE01F0F6
:10148000C7FE254B1E69F20715D55A69234C42F059
:1014900001025A612778BB1F012B2AD905226368F4
:1014A00022701B680BB120469847042F27D0022FCB
:1014B00025D003232370B30710D5174A174C53695F
:1014C00043F0020353612378032B1DD06368DB686C
:1014D0000622227013B101211048984701F0C0FE86
:1014E000019A2B689A4213D103B0BDE8F04003F093
:1014F000FFBC019A2B689A420AD103B0F0BD0223C7
:101500002370B307EAD5D8E72046FFF749FFDDE7A8
:10151000FFF72EFF0008002000000550F01100200A
:101520002DE9F0412F4C0578266882B0012D0196F7
:1015300006D0019A23689A4252D102B0BDE8F081E8
:10154000294DA842F5D10E4690461F46274AE86825
:101550002B460C2106F03CFA002839D1D5E902329D
:10156000126828339360EB681A68042151611B6884
:10157000C3F80C80EB681A6817611B68B6085E60D8
:101580002B694FB343F480232B61E968184A09683B
:101590000B60EB6819680B6843F001030B60536B39
:1015A00043F0010353630B214E2005F0F1FED5E912
:1015B0000113DA6842F00102DA60DA6842F00202EE
:1015C000DA600A6922F4804222F001021A60B0E770
:1015D000084801F0FDFCC1E723F480232B61D4E728
:1015E000FFF7C6FE00080020F0110020F1130008EC
:1015F0000038024080F100080000000000000000F8
:1016000030B5184C0378226883B0022B019205D0C4
:10161000019A23689A4223D103B030BD124B9842FD
:101620000546F5D18168114A0B6823F4804323F005
:1016300001030B608168CB6823F00F03CB60536B11
:1016400023F0010353634E2005F0CAFE019A23687C
:101650009A4205D1E86803B0BDE8304006F020BAF0
:10166000FFF786FE00080020F0110020003802403D
:1016700000B50F4B0278196883B0022A01910ED190
:1016800081680A6842F002020A6081680A6842F4CE
:1016900080420A6081680A6842F001020A60019A89
:1016A0001B689A4202D103B05DF804FBFFF760FEAD
:1016B0000008002000000000000000000000000002
:1016C00000B50F4B0278196883B0022A01910ED140
:1016D00081680A6822F002020A6081680A6842F49E
:1016E00080420A6081680A6842F001020A60019A39
:1016F0001B689A4202D103B05DF804FBFFF738FE85
:1017000000080020000000000000000000000000B1
:101710002DE9F043254D83B02C680194DDF8289025
:101720000F4616469846044618B111B1204B9A420E
:101730002FD9204801F04CFC202383F3118802F0BC
:10174000F7FC01F0E5FC2378012B02D0194801F0E9
:101750003FFC4246314620464B466760FFF7E0FEBD
:101760000223237001F0F4FC02F0FAFC124B1A6819
:101770009A4204D0996993688A689A420FD30023E9
:1017800083F31188019A2B689A420CD103B0BDE80B
:10179000F0839307CDD1B8F1000FCDD1C9E7074849
:1017A00001F016FCEBE7FFF7E3FD00BF00080020A7
:1017B000FCFF0300B0F10008203B0020A0F100086E
:1017C00030B51C4D83B02B680193044658B32023D9
:1017D00083F3118802F0ACFC01F09AFC2378022B11
:1017E00002D0154801F0F4FB2046FFF709FF012362
:1017F000237001F0ADFC02F0B3FC104B1A689A4262
:1018000004D0996993688A689A4208D3002383F3C5
:101810001188019A2B689A4209D103B030BD08485B
:1018200001F0D6FBF2E7044801F0D2FBCFE7FFF767
:101830009FFD00BF00080020C0F10008203B0020F1
:10184000A0F10008000000000000000000000000FF
:1018500030B51C4D83B02B680193044658B3202348
:1018600083F3118802F064FC01F052FC2378022B10
:1018700002D0154801F0ACFB2046FFF7F9FE042327
:10188000237001F065FC02F06BFC104B1A689A4261
:1018900004D0996993688A689A4208D3002383F335
:1018A0001188019A2B689A4209D103B030BD0848CB
:1018B00001F08EFBF2E7044801F08AFBCFE7FFF767
:1018C00057FD00BF00080020D0F10008203B002099
:1018D000A0F100080000000000000000000000006F
:1018E00030B51C4D83B02B680193044658B32023B8
:1018F00083F3118802F01CFC01F00AFC2378022B10
:1019000002D0154801F064FB2046FFF7D9FE0323FF
:10191000237001F01DFC02F023FC104B1A689A4260
:1019200004D0996993688A689A4208D3002383F3A4
:101930001188019A2B689A4209D103B030BD08483A
:1019400001F046FBF2E7044801F042FBCFE7FFF766
:101950000FFD00BF00080020F0F10008203B002030
:10196000A0F10008000000000000000000000000DE
:1019700030B51A4D83B02B680193044638B3202349
:1019800083F3118802F0D4FB01F0C2FB022320464E
:101990002370FFF735FE0123237001F0D9FB02F01D
:1019A000DFFB0F4B1A689A4204D0996993688A68E2
:1019B0009A4208D3002383F31188019A2B689A4234
:1019C00009D103B030BD074801F002FBF2E7064839
:1019D00001F0FEFAD3E7FFF7CBFC00BF00080020C0
:1019E000203B0020A0F1000800F2000800000000E9
:1019F00000B5074B07491A68087083B00192019A35
:101A00001B689A4202D103B05DF804FBFFF7B0FCFB
:101A10000008002004120020000000000000000068
:101A200000B5174B174A93F90030116883B0019144
:101A300001995BB1012B18D0022B13680ED099428B
:101A40004FF0000019D103B05DF804FB1368994210
:101A500013D103B05DF804EB00F0DABA99420CD16F
:101A600003B05DF804EB00F093BA1368994204D117
:101A700003B05DF804EB00F0ABBAFFF779FC00BFF0
:101A80000408002000080020000000000000000002
:101A900010B51B4B1B4C93F90030226882B00192A9
:101AA000B3B1012B21D0022B06D00020019A23686C
:101AB0009A4223D102B010BD134B1B788BB1019A0F
:101AC00023689A421AD102B0BDE8104000F060BA13
:101AD000019A23689A4211D102B0BDE8104000F08B
:101AE00097BA00F055FA4000E0E7019A23689A425D
:101AF00004D102B0BDE8104000F06ABAFFF738FC2C
:101B00000408002000080020050800200000000054
:101B1000F0B5124F83B03B68019300F051F9104BC0
:101B200093F90030022B064606D0019A3B689A4290
:101B3000304610D103B0F0BD0A4B1C7824B1F4E755
:101B4000735D33550134A4B2FFF7A2FF6500ADB257
:101B50008542F5D3E9E7FFF70BFC00BF0008002042
:101B6000040800200508002000000000000000001C
:101B700000B5084B08491A6883B000200192019A09
:101B80001B6808709A4202D103B05DF804FBFFF7AE
:101B9000EFFB00BF000800200B1200200000000037
:101BA00010B5104C82B023680193202383F3118871
:101BB00002F0EEFA01F0ECFA0B4B0C4801221A701D
:101BC00002F036FD01F004FB02F0FAFA002383F381
:101BD0001188019A23689A4201D102B010BDFFF723
:101BE000C7FB00BF000800201412002008080020D6
:101BF00010B50F4C0F4B2268197082B02023019250
:101C000083F3118802F0C4FA01F0C2FA0A4802F024
:101C10000FFD01F0DDFA02F0D3FA002383F31188FF
:101C2000019A23689A4201D102B010BDFFF7A0FBD0
:101C30000008002008120020080800200000000012
:101C400000B51F4A1F4B127818681F4983B00190D6
:101C500001208242087006D0019A1B689A422CD15A
:101C600003B05DF804FB1949194A0978D26881422A
:101C7000126811D0174818490078096801281068BF
:101C800006D000030ED51069884212D0D160E3E778
:101C90000003FBD41161DFE71068104900030968F5
:101CA000F8D5F3E7D0688842F4D10C49096811618E
:101CB000D2E70A490968D160CEE7FFF759FB00BFB8
:101CC0000A120020000800200B120020051200203C
:101CD000F0110020061200200C120020101200202B
:101CE00030B51B4D1B4C2B78226885B0012B03921D
:101CF00025D0FFF7CDFE184B1B78024653B9B0F53F
:101D0000164F20D8154900930B6815481549FFF761
:101D1000FFFC0BE0B0F5964F15D813490F4B09683F
:101D20001B680F4800910F49FFF7F2FC01232B704D
:101D30000020039A23689A4208D105B030BD0848B4
:101D4000FFF73EFDD5E74FF0FF30F2E7FFF710FB5E
:101D500009120020000800200A1200200C120020A6
:101D6000F011002010F20008101200200000000006
:101D700010B50F4C0F48236882B0019302F020FB8E
:101D80000D4802F0C5FC0D4B0A481B7843B102F028
:101D90004FFB0020019A23689A4206D102B010BD81
:101DA00002F046FB4FF0FF30F4E7FFF7E1FA00BF27
:101DB000000800201008002008080020141200204D
:101DC00070B5294B294C1878294D236882B00193AE
:101DD0002B7858B9012B03D0264A012310682B70A9
:101DE000019A23689A423DD102B070BD012B37D0D1
:101DF000214E3378012B33D0204B1B78FBB9204B7D
:101E00001C4ADB6811681B681A68100307D5DA687A
:101E10008A424FF0010221D03270D868E0E71A6997
:101E20008A424FF0010208D032701869D8E71A6967
:101E3000096891424FF00102F6D12A70F5E7FFF7E9
:101E400097FF0F4B0B49DB681B681A681203EED52E
:101E5000DA68096891424FF00102DDD12A70DCE7AF
:101E60000020BDE7FFF784FA0A12002000080020D6
:101E7000051200200C120020061200200B12002078
:101E8000F011002000000000000000000000000031
:101E900010B5084B084C1A68084882B001920199A5
:101EA0001A68002391422370037001D102B010BD63
:101EB000FFF75EFA0008002005120020061200203D
:101EC00010B5174A174B1278196882B00191F2B118
:101ED000154A1648164C11780022027022701548D7
:101EE00051B101991B680270994216D1124802B093
:101EF000BDE81040FFF7F4BC019A1B6801709A42DC
:101F00000BD10D4802B0BDE81040FFF7A1BC019A0B
:101F10001B689A4201D102B010BDFFF729FA00BF39
:101F200009120020000800200712002006120020DD
:101F30000512002014120020F01100200000000003
:101F400010B50D4B0D4C1A78216882B0012A019111
:101F500008D0019A23689A420CD102B0BDE8104023
:101F6000FFF7BEBE0649074800220A701A70FFF745
:101F7000FFFCEEE7FFF7FCF9091200200008002043
:101F800008120020F01100200000000000000000F6
:101F900010B50A4B0A4A1988146858881B7982B010
:101FA000022B019400FB01F00199136818BF400057
:101FB000994201D102B010BDFFF7DAF918120020E2
:101FC00000080020000000000000000000000000E9
:101FD00010B50A4B0A4A1988146858881B7982B0D0
:101FE0000D2B019400FB01F00199136818BF40000C
:101FF000994201D102B010BDFFF7BAF920120020BA
:1020000000080020000000000000000000000000A8
:1020100010B50A4B0A4A1988146858881B7982B08F
:10202000442B019400FB01F00199136818BF400094
:10203000994201D102B010BDFFF79AF92812002091
:102040000008002000000000000000000000000068
:1020500070B5294D82B02B6801930E46032841D8F4
:10206000DFE800F01A120A02012922D9234A536933
:1020700083F40063536116E0012926D91F4A53698E
:1020800083F4806353610EE0012918D91B4A536918
:1020900083F04003536106E001291CD9174A5369B4
:1020A00083F020035361019A2B689A4218D102B041
:1020B00070BD124B4FF4006229B15A83F3E70F4B06
:1020C00040220029F9D11A83EDE70C4B4FF48062CE
:1020D0000029F8D0F1E7094B20220029F3D0ECE7E2
:1020E000FFF746F90024E0B231460134FFF7B0FFB4
:1020F000042CF8D1D7E700BF00080020000C0240F4
:10210000F0B5104F104C3B6883B0002501932E466C
:102110000021E8B2FFF79CFF00F06AFD68B10135CD
:10212000042D26706670A67004F10304F0D1019AA4
:102130003B689A4204D103B0F0BD00F041FDEEE7E8
:10214000FFF716F900080020301200200000000000
:1021500030B5094B094D044607CB83B02B6801937A
:10216000206001982B6861609842A26001D103B0A1
:1021700030BDFFF7FDF800BF30120020000800203E
:102180002DE9F043254E83B034680194042A9DF86C
:102190002890144605460F46984639D9B9F1000FE4
:1021A00014BF00224FF08052640002EB0863013C30
:1021B0001C4405F00F0527F01F07202383F3118827
:1021C00001F0B6FF3D4300F0A3FF154B1035DD6075
:1021D0001C6100F0BDFF01F0C3FF124B1A689A4268
:1021E00004D0996993688A689A420DD3002383F3D7
:1021F0001188BFF36F8FBFF34F8F019A33689A42F4
:102200000AD103B0BDE8F083074800F0E1FEEDE736
:10221000064800F0DDFEC1E7FFF7AAF8000800203D
:1022200090ED00E0203B0020B0F2000890F20008A2
:1022300030B5224D224C2B68224A85B00393636847
:1022400043F004036360536A43F4803353622023F2
:1022500083F3118801F06CFF00F05AFF17221A4B2C
:10226000E260236100F074FF01F07AFF174B1A68F7
:102270009A4204D0996993688A689A4218D30020D8
:1022800080F31188BFF36F8FBFF34F8F03231D229D
:1022900000904FF00051FFF773FF094A536843F075
:1022A00001035360039A2B689A4205D105B030BDF3
:1022B000074800F08DFEE2E7FFF75AF8000800201B
:1022C00090ED00E000ED00E009000010203B002050
:1022D000B0F2000800000000000000000000000054
:1022E00070B51A4D1A4C1B4E0FCD0FC49EB02A6804
:1022F000336822801D93EFF30981682203A8FEF75B
:10230000D7FD154B9D6AAA0714D4EB0708D5124BCD
:1023100008995B6B114A00910D48802109F098FDE6
:102320001D9A33689A420FD109481EB0BDE870402B
:1023300000F04EBE099A5B6B0092A4F11000084AAF
:10234000802109F085FDE0E7FFF712F874F200083C
:102350003C1200200008002000ED00E050F20008D0
:1023600030F2000800000000000000000000000043
:1023700000B51F4B0278196883B00191E2B11D4A84
:102380004FF4005111834278EAB11A4A4FF4805158
:1023900011838278F2B1174A4FF480411183C278D9
:1023A000FAB9144A4FF400415183019A1B689A42CA
:1023B0001CD103B05DF804FB0E4A4FF40051518369
:1023C0004278002AE1D10B4A4FF480515183827840
:1023D000002AE0D1074A4FF480415183C278002A95
:1023E000DFD0044A4FF400411183DEE7FEF7C0FF5F
:1023F0000008002000100240000000000000000063
:1024000000B51F4B0278196883B00191E2B11D4AF3
:102410004FF4007111834278EAB11A4A4FF4807187
:1024200011838278F2B1174A4FF400611183C278A8
:10243000FAB9144A4FF480615183019A1B689A4299
:102440001CD103B05DF804FB0E4A4FF400715183B8
:102450004278002AE1D10B4A4FF48071518382788F
:10246000002AE0D1074A4FF400615183C278002A64
:10247000DFD0044A4FF480611183DEE7FEF778FF76
:1024800000080020001002400000000000000000D2
:1024900030B50C4A0C4B116883B04FF400550191D4
:1024A0004FF480544FF400414FF480405D835C83CF
:1024B0005883598301991368994201D103B030BD03
:1024C000FEF756FF00080020001002400000000048
:1024D00030B50C4A0C4B116883B04FF40075019174
:1024E0004FF480744FF480614FF400605D835C832F
:1024F0005883598301991368994201D103B030BDC3
:10250000FEF736FF00080020001002400000000027
:1025100010B50B4C0B48236882B09922002101931F
:1025200003F03EF8019A23689A4206D1054800213B
:1025300002B0BDE8104003F01BB9FEF719FF00BF61
:1025400000080020004900200000000000000000FA
:1025500010B50B4C0B48236882B0992200210193DF
:1025600003F01EF8019A23689A4206D1054800211B
:1025700002B0BDE8104003F0FBB8FEF7F9FE00BF63
:10258000000800201C49002000000000000000009E
:1025900000B5084B83B01A680192019A1B689A42F1
:1025A00006D10548002103B05DF804EB03F048B8FC
:1025B000FEF7DEFE000800200049002000000000B9
:1025C00000B5084B83B01A680192019A1B689A42C1
:1025D00006D10548002103B05DF804EB03F030B8E4
:1025E000FEF7C6FE000800201C4900200000000085
:1025F00070B51A4C1A4E2378326882B0022B0192C1
:10260000A26811D165781748013505F0070500EB80
:102610008500904763686570013B6360019A336889
:102620009A4219D102B070BD012B08D001993368CC
:10263000994211D10C4802B0BDE87040104765784E
:102640000848013D05F0070500EB850090476368E9
:10265000657001336360E1E7FEF78AFED81200205F
:102660000008002050F3000840F3000800000000BC
:1026700070B51A4C1A4E2378326882B0012B019241
:10268000A26811D165781748013505F0070500EB00
:10269000850090476368657001336360019A336811
:1026A0009A4219D102B070BD022B08D0019933684B
:1026B000994211D10C4802B0BDE8704010476578CE
:1026C0000848013D05F0070500EB85009047636869
:1026D0006570013B6360E1E7FEF74AFEBC12002033
:1026E0000008002050F3000840F30008000000003C
:1026F00070B51D4E1D4A1E4B30681E491E4C916020
:1027000082B00021D46001901C4C1D481D4D9D607D
:10271000117051705160106154611B481B4A1C4D6F
:10272000D8601C48197059705960C3E90425FFF737
:102730001FFE1848FFF764FE1749204602F098FE76
:10274000204602F0CDFF2846144902F091FE019A7E
:1027500033689A4205D1284602B0BDE8704002F0C5
:10276000BFBFFEF705FE00BF00080020D812002002
:10277000BC12002071230008112500080049002028
:10278000912500080124000851250008C1250008F2
:102790001C49002040F3000800F30008C0F20008C4
:1027A00030B5204D85B02B68039340F24C439942DD
:1027B000044628DCA3F69803994212DB4B00002B59
:1027C00081612BD10370036998474FF47A71039AA2
:1027D0002B689A4220D1606905B0BDE8304002F014
:1027E00097BE8361104B02225B42227040F2892225
:1027F00093420E4991FBF3F189B208DC0191E36841
:1028000098470199E3E70122836102702D2101912C
:10281000236998470199DAE7FEF7AAFDE3DD012273
:102820000270E3E70008002068F7FFFFA0860100C0
:1028300030B50E4C83B023680193054600F0E8FAEA
:10284000019A236840B99A420ED10948294603B03B
:10285000BDE83040FFF7A4BF9A4205D1284603B037
:10286000BDE8304000F0ECBAFEF782FD0008002021
:10287000BC1200200000000000000000000000006A
:1028800030B50E4C83B023680193054600F0C0FAC2
:10289000019A236840B99A420ED10948294603B0EB
:1028A000BDE83040FFF77CBF9A4205D1284603B00F
:1028B000BDE8304000F0DCBAFEF75AFD0008002009
:1028C000D8120020000000000000000000000000FE
:1028D0000A490B4B09680B4A82B020200191402124
:1028E00058834FF4806559834FF400644FF480405F
:1028F00004215D835C8358835183FEE70008002038
:10290000000C024000040240000000000000000033
:102910002DE9F04F884C894AA36989491268996169
:1029200085B0002332200392029301F029F9DFF8E9
:102930003082DFF830A2DFF81C92DFF80CB22025DD
:1029400085F3118801F0F4FB00F0E2FBA66A00F0C9
:10295000FFFB01F005FC2368A34207D0A2699B6836
:1029600092689A4202D2774800F032FB002383F348
:10297000118885F3118801F0DBFB00F0C9FB98F8A2
:102980000030012B00F0A38000F0E2FB01F0E8FB37
:102990002368A34207D0A2699B6892689A4202D238
:1029A000684800F015FB002383F311889AF8003083
:1029B000012B06D1FFF784FAFFF7DAF9002840F07F
:1029C0008A8040F6FC72FF215F4809F0F1F95F4B05
:1029D0001B78012B77D04FF06533C9E90033C9F874
:1029E00008305B4803F0ACFF574B5A4A58480C215B
:1029F00004F026F8564803F0E3FF00230293029BFD
:102A000042F20F72934206D800BF029B0133029339
:102A1000029B9342F8D99BF80000FEF7E9FF9AF871
:102A20000030012B49D19BF80130B72B88D1FEF73C
:102A3000F7FF494E8308A6FB0323C3F3CF17009784
:102A4000FEF7EEFF8308A6FB0323DB09C3EB83231A
:102A5000A0EB83030193FFF75BF8404B18603FB393
:102A600000273E463A4803F06BFF3C4B38481A6853
:102A7000354B3A4440F6FC7103F0E2FF344803F072
:102A80009FFF00230293062E029B48D943F697220C
:102A9000934206D800BF029B01330293029B9342EC
:102AA000F8D90136009AB3B29A4207F6FC77D9D822
:102AB000019B9BB9FFF7ECF942E706F13201304682
:102AC00001F09EF83CE72348FFF742FB89E703202B
:102AD00000F0B6FD58E7FFF733FA31E71C4803F082
:102AE0002FFF1E4B009A1E681948174B0199C2EB25
:102AF000822206EB820203F0A3FF154803F060FF79
:102B000000230293029B43F697229342D2D800BF40
:102B1000029B01330293029B9342F8D9CAE741F228
:102B200087329342BDD800BF029B01330293029BC0
:102B30009342F8D9B5E700BF203B002000080020F1
:102B400090F3000870F3000800130020FC1200202E
:102B50007C4800208028002001020820F812002074
:102B6000FC220020F4120020000000000000000001
:102B700010B50D4C0D4923680D4884B0039303F044
:102B800097FE0023009340220A4B0B484FF4AF619D
:102B900000F09EFF039A236808499A42086001D119
:102BA00004B010BDFEF7E4FB0008002080F300082D
:102BB0007C48002011290008082300200023002061
:102BC00000B5084B08491A6883B001200192019AA8
:102BD0001B6808709A4202D103B05DF804FBFEF74F
:102BE000C7FB00BF00080020FC120020000000000E
:102BF00000B5074B07491A68087883B00192019A1B
:102C00001B689A4202D103B05DF804FBFEF7B0FBEB
:102C100000080020FC12002000000000000000005E
:102C200000B50F4B83B01868019002290CD003291E
:102C30000CD001290B4818BF0020019A1B689A424A
:102C40000BD103B05DF804FB0748F6E7032A96BFF3
:102C50000648002000EBC200EFE7FEF789FB00BF4B
:102C60000008002080F4000820F4000830F5000877
:102C700070B5154C82B02368019302291CD10D4612
:102C80000646202383F3118801F082FA00F080FACF
:102C900030460E4A012103F0D3FF29460C4A304644
:102CA00003F0CEFF0B4803F0A3FC00F091FA01F013
:102CB00087FA002383F31188019A23689A4201D18D
:102CC00002B070BDFEF754FB00080020A0F300081E
:102CD000D0F300087C380020000000000000000055
:102CE00030B5134D134C2B68134883B0019303F098
:102CF000F7FB1249104803F023FC226D936B23F479
:102D0000002393634FF47A7000F03AFF20460C4999
:102D100003F046FF226D936B43F400239363019A03
:102D20002B689A4201D103B030BDFEF721FB00BFF2
:102D300000080020E04500207C38002000F4000856
:102D400010F4000800000000000000000000000077
:102D500000B5084B83B01A680192019A1B689A4229
:102D600005D1054803B05DF804EB01F029BBFEF77F
:102D7000FFFA00BF00080020240800200000000027
:102D800000B5084B83B01A680192019A1B689A42F9
:102D900005D1054803B05DF804EB01F049BBFEF72F
:102DA000E7FA00BF0008002024080020000000000F
:102DB00070B50D4C82B0236801930D1E06460DDDE3
:102DC000284602F00DF818B90C2333604FF0FF309D
:102DD000019A23689A4205D102B070BD034800F001
:102DE000F7F8EDE7FEF7C4FA0008002050F50008F8
:102DF00000B5064B83B01A680192019A1B689A428B
:102E000002D103B05DF804FBFEF7B2FA000800201F
:102E100000B5074B07491A68087883B00192019AF8
:102E20001B689A4202D103B05DF804FBFEF7A0FADA
:102E300000080020103B00200000000000000000FF
:102E400000B5074B07491A68086083B00192019AE0
:102E50001B689A4202D103B05DF804FBFEF788FAC2
:102E600000080020143B00200000000000000000CB
:102E700000B5074B07491A68086083B00192019AB0
:102E80001B689A4202D103B05DF804FBFEF770FAAA
:102E900000080020183B0020000000000000000097
:102EA00000B5064B83B01A680192019A1B689A42DA
:102EB00002D103B05DF804FBFEF75AFA00080020C7
:102EC000024B82B01B680193FEE700BF00080020A0
:102ED00000B5044B04481B6883B0019300F078F8F8
:102EE000FEE700BF0008002060F5000800000000B9
:102EF000024B82B01B680193FEE700BF0008002070
:102F0000F0B5294E294B3268294885B00024039238
:102F10009C60D968274A4FF6FF0529400A43DA60CA
:102F2000C2682549254D42F08072C2600A6842F0AD
:102F300001020A6010202022D87783F8222000F0B6
:102F4000DFFA00F045FA01F043F801F021FF01F04B
:102F50008FFF01F095F800F0FBF9402105F588603E
:102F600000F01EFD0127164BC36180F82070A86198
:102F700000F0A6F884F3118862B6AB69114A9A6131
:102F80004FF4C4713A46104B009405F59D6000F073
:102F90009FFD039A33680D4981619A4201D105B0C2
:102FA000F0BDFEF7E5F900BF0008002000ED00E0ED
:102FB000F0ED00E00003FA05001000E0203B0020E7
:102FC00000040020E0F60008F12E000880F500085B
:102FD00000B5054B83B01B680193044672B6FFF73A
:102FE00077FC024BDC62FEE700080020203B00205B
:102FF0002DE9F047DFF890A0224DDAF8003082B0DA
:10300000019300F055F9AB6993F8232012B1013A0E
:1030100083F823205A6ADFF8748001325A6200F084
:1030200047F9AB6AEA6901334245AB6220D0936845
:10303000013B9360EC69A668D6B94FF0200923687C
:10304000E768E660C3F804802368EB6100F0C0F82D
:1030500001F0B6F886F311882069B84789F3118822
:1030600001F096F800F094F8EC69A368002BE6D024
:10307000019ADAF800309A4202D102B0BDE8F08736
:10308000FEF776F9203B0020000800203C3B0020A2
:1030900010B5094C094A236882B0019351685368FE
:1030A0005B1A9842FBD8019A23689A4201D102B078
:1030B00010BDFEF75DF900BF00080020001000E021
:1030C00000B50E4A0E4B116B186883B0019009B918
:1030D000526B4AB1019A1B689A420CD1094803B05D
:1030E0005DF804EBFFF774BF019A1B689A4202D1A6
:1030F00003B05DF804FBFEF73BF900BF203B002066
:103100000008002090F5000800000000000000000A
:1031100030B50B4C0B4D236B2A6883B001920BB971
:10312000636B13B10848FFF753FF019A2B68012125
:103130009A42616301D103B030BDFEF719F900BFB7
:10314000203B002000080020C0F50008000000001F
:1031500030B50C4C0C4D236B2A6883B0019253B9E7
:10316000636B002B07DD019A2B6800219A42616393
:1031700005D103B030BD0548FFF72AFFF3E7FEF79E
:10318000F7F800BF203B002000080020E0F5000811
:1031900030B50B4C0B4D236B2A6883B0002B01928A
:1031A00001DD636B13B10848FFF712FF019A2B682A
:1031B00001219A42616301D103B030BDFEF7D8F816
:1031C000203B002000080020D0F50008000000008F
:1031D00030B50C4C0C4D236B2A6883B0002B019248
:1031E0000ADD636B002B07DD019A2B6800219A42F0
:1031F000616305D103B030BD0448FFF7E9FEF3E792
:10320000FEF7B6F8203B002000080020F0F500088B
:1032100030B50F4D83B02B680193202383F31188C1
:103220000C4C236B002B01DB626B1AB10A48FFF7D1
:10323000CFFE236B01332363002383F31188019AAC
:103240002B689A4201D103B030BDFEF791F800BF60
:1032500000080020203B0020A0F50008000000002E
:1032600030B50F4D83B02B680193202383F3118871
:103270000C4C236B002B01DD626B1AB10A48FFF77F
:10328000A7FE236B013B2363002383F31188019A7C
:103290002B689A4201D103B030BDFEF769F800BF38
:1032A00000080020203B0020B0F5000800000000CE
:1032B00000B50F4A0F4B116B186883B000290190BD
:1032C00009DB526B002A06DD019A1B689A420CD179
:1032D00003B05DF804FB019A1B689A4205D10648C9
:1032E00003B05DF804EBFFF773BEFEF741F800BFD3
:1032F000203B00200008002000F60008000000002D
:1033000000B50E4A0E4B116B186883B0019049B995
:10331000526B002A06DD019A1B689A420CD103B059
:103320005DF804FB019A1B689A4205D1054803B079
:103330005DF804EBFFF74CBEFEF71AF8203B0020C7
:103340000008002010F60008000000000000000047
:1033500010B5084A084B116882B0402401910199C8
:10336000126818199142C3E90E4001D102B010BD94
:10337000FDF7FEFF00080020203B002000000000B9
:1033800010B51149114B0A6882B00192DA6B9C6A40
:103390001460DA6B9C695460DA6B846A9460DA6B4F
:1033A00090F820001073DA6B03F5886010328242C7
:1033B00028BF03F14002DA63019A0B689A4201D1F7
:1033C00002B010BDFDF7D4FF00080020203B002014
:1033D00010B50B4A0B4B116882B04FF0FF340191CE
:1033E00000219962019811685C6203F11C02884215
:1033F000C3E9072201D102B010BDFDF7B9FF00BF3C
:1034000000080020203B0020000000000000000019
:103410002DE9F041184E82B00546306801900C4607
:1034200017469846FFF744FF05B3FFB1F4B1C5E96D
:1034300003781248C3699A68944204D91B68A41A95
:103440009A68A242FAD32B605A686A6015605D6080
:10345000AC609968019D3268091B95424FF0FF34BA
:103460009960446206D102B0BDE8F0810448FFF7DC
:10347000AFFDDCE7FDF77CFF00080020203B0020CB
:1034800020F600080000000000000000000000001E
:1034900030B5164D83B004462B680193FFF708FF43
:1034A000ECB1E368BBB12268A0689368019903445A
:1034B0009360D4E900231A6020682B680C4A656881
:1034C000456099424FF000054FF0FF30E5605062D3
:1034D00009D103B030BD0748FFF77AFDE3E705489F
:1034E000FFF776FDDDE7FDF743FF00BF0008002092
:1034F000203B002030F60008000000000000000023
:1035000000B50A4A0A4B11681B6083B00020019184
:10351000019912685B609142C3E90433986002D15B
:1035200003B05DF804FBFDF723FF00BF0008002097
:10353000203B002000000000000000000000000010
:1035400030B5164D83B004462B680193FFF7B0FEEB
:10355000ECB194F82030B3B10F2B14D00022A16845
:103560000F4B84F820201B689A688A42FBD22360A4
:103570005A686260146001992A685C609142204632
:1035800009D103B030BD0748FFF722FDE6E7054843
:10359000FFF71EFDDDE7FDF7EBFE00BF0008002092
:1035A000203B002040F60008000000000000000062
:1035B00070B5204D82B02B6801930446202383F31D
:1035C000118800F0E5FDFFF7E3FD94F82030072BAC
:1035D00011D8DFE803F0161010230A04100AA66AB7
:1035E000FFF766FEB3680133B360D4E900231A60C5
:1035F000D4E900325A604FF0FF33A3622046FFF750
:103600009FFFFFF7E5FD00F0DBFD002383F311884A
:10361000019A2B689A420BD102B070BDA36A0022B6
:103620001A604FF0FF33A3622046FFF789FFE8E7F7
:10363000FDF79EFE000800200000000000000000D2
:10364000F0B5194E194C336883B007460193FFF764
:1036500057FEA569236885F82070142285F8232079
:103660001A68226001215460284683F82010A36163
:10367000FFF786FE2946A06900F03AFDEFF30983C3
:10368000EA69643B9A4202D90948FFF7A1FC019A12
:1036900033689A4206D1A069294603B0BDE8F040DC
:1036A000FCF706BEFDF764FE00080020203B00206A
:1036B00050F60008000000000000000000000000BC
:1036C000F0B5154C87B0236805930E460746FFF703
:1036D00017FE731C18D0114D114AAB69314668466C
:1036E000FFF796FE3846FFF7ABFFFFF7E1FD039BC0
:1036F00013B16846FFF7CCFE059A2368A9699A4280
:10370000886A06D107B0F0BD3846FFF799FF034D30
:10371000F2E7FDF72DFE00BF00080020203B00204F
:10372000B1350008000000000000000000000000AB
:10373000F0B51E4D1E4E2B6883B0044601930F4614
:10374000FFF7DEFDB069A7628368A2689A421DD9BF
:10375000FFF7F6FE0123074684F82030B461FFF737
:103760000FFE3946204600F0C3FCEFF30983FA69E7
:10377000643B9A4214D8019A2B689A4214D1394674
:10378000204603B0BDE8F040FCF792BD019A2B68DB
:103790009A4209D1204603B0BDE8F040FFF7D0BE01
:1037A0000448FFF715FCE6E7FDF7E2FD00080020FE
:1037B000203B002050F60008000000000000000040
:1037C00010B50E490E4B8A69086892F823101C68E0
:1037D0008068926882B0019449B9904234BF002059
:1037E0000120019A1B689A4206D102B010BD904296
:1037F00094BF00200120F4E7FDF7BAFD203B002034
:103800000008002000000000000000000000000090
:1038100070B5184C184E2368A5691A682260546068
:10382000012283F8202082B01422316885F82320F9
:103830002846A3610191FFF783FE2846FFF7A0FD0C
:103840002946A06900F054FCEFF30983EA69643B60
:103850009A4202D90948FFF7BBFB019A33689A42A2
:1038600006D1A069294602B0BDE87040FCF720BD32
:10387000FDF77EFD203B00200008002050F60008E8
:1038800070B51C4D1C4E2A68AC6913682B60012171
:1038900082B05D60002082F82010AA613268A168C1
:1038A00084F82000019200E01B689A688A42FBD8E5
:1038B00023605A686260204614605C60FFF760FD18
:1038C0002146A86900F014FCEFF30983E269643B28
:1038D0009A4202D90948FFF77BFB019A33689A4262
:1038E00006D1A869214602B0BDE87040FCF7E0BCF3
:1038F000FDF73EFD203B00200008002050F60008A8
:1039000010B50F4C82B023680193FFF7F9FCFFF765
:10391000CFFC0C4B1A689B6992689B689A42019A8B
:10392000236803D89A4208D102B010BD9A4204D14C
:1039300002B0BDE81040FFF7A3BFFDF719FD00BFBF
:1039400000080020203B00200000000000000000D4
:1039500000B50E4A0E4B9269196892F8232083B085
:10396000019142B1019A1B689A420DD103B05DF8F2
:1039700004EBFFF785BF019A1B689A4204D103B09C
:103980005DF804EBFFF744BFFDF7F2FC203B00209D
:1039900000080020000000000000000000000000FF
:1039A000F0B51A4A1A4D02610446816083B01423AF
:1039B00050692E68616484F82330022700230121B6
:1039C000278484F82210C4E90F3304F16801A3614D
:1039D000019604F12C07636204F1500604F13003F0
:1039E00060610461C4E90C33E1613046E76254610F
:1039F00000F086FA304600F0A3FA019A2B689A424A
:103A000002D1204603B0F0BDFDF7B2FC203B002000
:103A1000000800200000000000000000000000007E
:103A200010B5094B82B01C680194884203D200F89B
:103A3000012B8142FBD1019A1B689A4201D102B04D
:103A400010BDFDF795FC00BF00080020000000003D
:103A50002DE9F043184E83B0346801940546DDF833
:103A600028900C4617469846FFF722FC15B1B4F58E
:103A7000BC7F19D21148FFF7ABFAA4F164012944C5
:103A8000E960C1F84080EB68019AC3F8449033685C
:103A9000E9680B4808669A420CD13946284603B0BB
:103AA000BDE8F043FFF77CBF7F2FE3D8B8F1000FEC
:103AB000E3D1DFE7FDF75CFC00080020A0F600087A
:103AC000C902000800000000000000000000000023
:103AD0002DE9F04FDFF8A48087B0D8F80040DDF87A
:103AE0004090059407468A46934600F168060446CE
:103AF000FF2504F8015BA642FBD107EB0A05A542AE
:103B000004D9552604F8016BA542FBD1039320226A
:103B100082F3118800F00CFBFFF7FAFA039BCDF853
:103B200000905A4651463846FFF792FF002104465E
:103B3000FFF7FEFDFFF70CFB00F012FB0D4B1A68C0
:103B40009A4204D0996993688A689A420BD30023F9
:103B500083F31188059AD8F800309A42204606D19E
:103B600007B0BDE8F08F0448FFF732FAEFE7FDF742
:103B7000FFFB00BF203B002060F60008000800208B
:103B800030B5184C83B0236801930546202383F396
:103B9000118800F0CDFAFFF7BBFA15B91248FFF70C
:103BA00017FA29460820FFF78BFDFFF7D1FA00F03E
:103BB000D7FA0E4B1A689A4204D0996993688A68BA
:103BC0009A4208D3002383F31188019A23689A420A
:103BD00005D103B030BD0648FFF7FAF9F2E7FDF76B
:103BE000C7FB00BF0008002070F60008203B002043
:103BF00060F6000800000000000000000000000067
:103C0000F0B51C4F83B03B68019304460E46202359
:103C100083F31188184D00F08BFAFFF779FAA96A3F
:103C2000331B0C1B9C4219D3FFF792FA00F098FA51
:103C30002B68AB4204D0AA699B6892689A4209D368
:103C4000002383F31188019A3B689A4230460FD1D2
:103C500003B0F0BD0948FFF7BBF9F1E7741A02D1D0
:103C60000748FFF7B5F921460820FFF729FDDBE7F4
:103C7000FDF77EFB00080020203B002060F60008D6
:103C800070F60008000000000000000000000000C6
:103C900070B5164B164E9C693268E36AA06282B01A
:103CA00004F12C05AB42019207D01A68E262184673
:103CB000FFF746FCE36AAB42F7D194F821309B074B
:103CC00005D1D4E904231A61D4E904325A610F20E2
:103CD000FFF7B6FC019A33689A4205D1054802B055
:103CE000BDE87040FFF774B9FDF742FB203B0020B0
:103CF00000080020B0F600080000000000000000EE
:103D000030B50C4C83B0236801930546202383F320
:103D1000118800F00DFAFFF7FBF9019A23689A4227
:103D200005D1284603B0BDE83040FFF7B1BFFDF72D
:103D30001FFB00BF00080020000000000000000082
:103D4000F0B50D4D0D4E03682A68B76983B004467F
:103D5000019213B10A48FFF73BF927600320BC62C8
:103D6000FFF76EFC019A2B68B1699A42886A01D10B
:103D700003B0F0BDFDF7FCFA00080020203B002056
:103D8000C0F6000800000000000000000000000075
:103D9000F0B5124D04682B6883B00193B4B194F868
:103DA0002030032B06460F460CD100233360019AC6
:103DB0002B68A7629A420FD1204603B0BDE8F040BD
:103DC000FFF7BEBB0648FFF703F9EEE7019A2B6841
:103DD0009A4201D103B0F0BDFDF7CAFA00080020F5
:103DE000D0F6000800000000000000000000000005
:103DF00030B5104A83B01368019381B10E4B019D19
:103E00009B69186044685C60236012684360954257
:103E10000DD1042003B0BDE83040FFF751BC01993B
:103E2000136899424FF0FF3001D103B030BDFDF768
:103E30009FFA00BF00080020203B00200000000087
:103E400070B5124D04682B6882B0A042019315D062
:103E500023680360586094F82030042B0E4602D08B
:103E60000B48FFF7B5F8019A2B68A6629A420BD16E
:103E7000204602B0BDE87040FFF762BB019A2B6894
:103E80009A4201D102B070BDFDF772FA000800201D
:103E900080F60008000000000000000000000000A4
:103EA0002DE9F041DFF850800468D8F8003082B086
:103EB000A042019313D00F4F05460E4623682B6096
:103EC0005D6094F82030042B02D03846FFF780F86C
:103ED000A6622046FFF734FB2C68A542EED1019A7A
:103EE000D8F800309A4202D102B0BDE8F081FDF767
:103EF0003FFA00BF80F60008000800200000000024
:103F000030B50B4B83B01A6801924FF0FF3202605C
:103F100001991A680024002300259142C0E9044554
:103F2000C0E90133C36001D103B030BDFDF720FA11
:103F30000008002000000000000000000000000059
:103F400000B5084B084A196883B001915168019A7D
:103F50001B6881609A4202D103B05DF804FBFDF753
:103F600007FA00BF00080020001000E00000000079
:103F7000F0B51449144B0A68846883B00192134A5F
:103F80005B68D2F8A864C2681B1BD0E90445013203
:103F90009B1BC26042688360E61845F100079342AC
:103FA000C0E9046709D80268934238BF0360019AE8
:103FB0000B689A4203D103B0F0BD4360F7E7FDF709
:103FC000D7F900BF00080020001000E0203B0020CF
:103FD00030B5114D114C2B6889B04FF0FF3107936C
:103FE000002300226846C4F8A834CDE901330393C6
:103FF0000023CDE904230091FFF7A2FF6846FFF7F5
:10400000B7FF079A2B680299C4F8A8149A4201D105
:1040100009B030BDFDF7ACF900080020203B0020BE
:104020002DE97048134E144B326883B001925B68DF
:104030008B60D0E902411B1BD0E90445426814EBB8
:10404000030B45F1000C01319342C0E90231C0E994
:1040500004BC0AD80268934238BF0360019A3368EF
:104060009A4204D103B0BDE870884360F6E7FDF7DB
:104070007FF900BF00080020001000E000000000F1
:1040800030B50D4D0D4C2B6883B004F5976001934E
:104090000023C4F8B034C4F8B434FFF731FF019AF8
:1040A0002B689A4206D104F59A6003B0BDE830400F
:1040B000FFF726BFFDF75CF900080020203B002039
:1040C00000B50949094A0B6883B001930198D2F8F9
:1040D000B034096801338842C2F8B03402D103B069
:1040E0005DF804FBFDF744F900080020203B0020A8
:1040F00070B50D4C0D4A236882B00193019DD2F832
:10410000B43424680133A542C2F8B43409D10E4650
:1041100000F1500106F1500002B0BDE87040FFF719
:104120007FBFFDF725F900BF00080020203B0020DD
:1041300000B5084B83B01A680192019A1B689A4235
:1041400005D1054803B05DF804EBFFF7F9BEFDF7B4
:104150000FF900BF00080020D83F00200000000039
:1041600000B5084B83B01A680192019A1B689A4205
:1041700005D1054803B05DF804EBFFF7F9BEFDF784
:10418000F7F800BF00080020D83F00200000000022
:1041900000B5084B83B01A680192019A1B689A42D5
:1041A00005D1054803B05DF804EBFFF7C9BEFDF784
:1041B000DFF800BF00080020F03F002000000000F2
:1041C00000B5084B83B01A680192019A1B689A42A5
:1041D00005D1054803B05DF804EBFFF7C9BEFDF754
:1041E000C7F800BF00080020F03F002000000000DA
:1041F00030B50B4D83B02B680193044650B1246059
:1042000001992A68646000239142A360236105D16B
:1042100003B030BD0348FEF7DBFEF0E7FDF7A8F87A
:104220000008002010F70008000000000000000057
:10423000F0B55D4E5D4B32689D6983B004460192D6
:10424000FFF75EF8002C00F08480A0682369002846
:1042500043D0002B40F39780854276D0AA688368CC
:104260009A4208D990F820308260062B40D0072B64
:1042700073D0002B5DD02746234603E09968AA68D7
:10428000914233D31B689C42F8D12F607B686B60EE
:1042900006201D607D60AC62FFF7D2F9A368AB42D7
:1042A00002D04348FEF794FE2B6CA34202D0404854
:1042B000FEF78EFE2369012B05D1019A33689A42DD
:1042C0006FD103B0F0BD019A33689A4269D1384882
:1042D00003B0BDE8F040FEF77BBE002B58D10133A0
:1042E000A56023612B6CE3602C64E6E71F46CCE7F6
:1042F000D0E900231A60D0E900325A60876A3B4651
:1043000003E099688268914247D31B689F42F8D1C5
:1043100007607B68436018607860836AAA68986861
:1043200083689342A7D290F820308260062B9ED1FA
:10433000DEE7D0E90023012180F820101A60D0E9DF
:1043400000325A60FFF7FCF895E7236901332361D7
:10435000B3E71748FEF73CFE77E7D0E900231A6081
:10436000D0E900325A60876A3B4603E09968826868
:10437000914214D31B689F42F8D107607B68436069
:104380001860786077E70A48FEF722FEA06863E7C6
:104390000748FEF71DFE2369A1E71F46B8E71F4641
:1043A000EBE7FCF7E5FF00BF00080020203B002002
:1043B00020F70008000000000000000000000000DE
:1043C00030B5154C83B0236801930546202383F351
:1043D0001188FFF7ADFEFEF79BFE2846FFF728FF8A
:1043E000FEF7B6FEFFF7BCFE0C4B1A689A4204D0EB
:1043F000996993688A689A4208D3002383F31188E5
:10440000019A23689A4205D103B030BD0448FEF7F3
:10441000DFFDF2E7FCF7ACFF00080020203B0020A6
:1044200000F700080000000000000000000000008D
:104430002DE9F043DFF800813C4FD8F80030BE6929
:1044400083B005460193002864D0202383F31188AC
:10445000FFF76EFEFEF75CFE336C002B5ED09B68B0
:10446000B34202D03248FEF7B3FD2B69002B49DD81
:10447000013B2B615BBB336CAB4202D02C48FEF797
:10448000A7FDEB683364FEF73BFF2B689D423ED0EF
:10449000D6E910495CB1FEF733FF23689C4203D094
:1044A0009B68994538BF9946E468002CF3D1C6F85B
:1044B00008902B6801222A611A682A605560AB6057
:1044C0001A6CEA6018461D640021FFF731F9FEF707
:1044D0003FFEFFF745FE3B68BB4204D0BA699B68CC
:1044E00092689A420AD3002383F31188019AD8F87C
:1044F00000309A4217D103B0BDE8F0830D48FEF7B3
:1045000067FDF0E70A48FEF763FD2B69B0E700237B
:10451000AB60DCE70648FEF75BFD96E70448FEF774
:1045200057FD336C9BE7FCF723FF00BF203B0020C7
:1045300030F7000800F70008000800200000000025
:104540002DE9F041DFF8D880334BD8F800209E6980
:1045500082B005460192FEF7D3FE002D4FD0336C9A
:10456000002B52D09B68B34202D02C48FEF730FD9E
:104570002B69002B3EDD013B2B61002B32D1336CCC
:10458000AB4202D02548FEF723FDEB683364FEF70B
:10459000B7FE2B689D4223D0D6E910475CB1FEF7E9
:1045A000AFFE23689C4203D09B689F4238BF1F46E2
:1045B000E468002CF3D1B7602868019901232B61CE
:1045C00003682B60D8F800205D60A860036CEB6086
:1045D000914205641ED102B0BDE8F041FEF7B0BFC4
:1045E0000023AB60019AD8F800309A4212D102B091
:1045F000BDE8F0810948FEF7EBFC2B69BBE70748F3
:10460000FEF7E6FC336C002BACD10448FEF7E0FC6F
:10461000336CA7E7FCF7ACFE203B002040F7000816
:104620000008002000000000000000000000000062
:1046300070B5114E82B0044633680193FEF738FE20
:104640009CB12068A0420AD06FF001050368236086
:104650005C60FEF775FF85622068A042F6D1019A82
:1046600033689A4205D102B070BD0448FEF7B0FC31
:10467000E7E7FCF77DFE00BF0008002060F70008B8
:104680002DE9F0411E4F1F4E3B68B46982B00546CC
:104690000193FEF735FE65B3236C33B3B369D3F8EA
:1046A00040804046FFF74CFF2E46A5622B4603E0B4
:1046B0009968A268914216D31B689D42F8D1266082
:1046C0007368636007201C607460FEF7B9FF4046A2
:1046D000A46AFFF7ADFD019A3B689A4220460CD1CF
:1046E00002B0BDE8F0811E46E9E70748FEF770FC1E
:1046F000D4E70548FEF76CFCCEE7FCF739FE00BFB7
:1047000000080020203B002080F700080000000087
:1047100030B5164C83B0236801930546202383F3FC
:104720001188FFF705FDFEF7F3FC2846FFF7A8FF09
:104730000546FEF70DFDFFF713FD0D4B1A689A4273
:1047400004D0996993688A689A4209D3002383F355
:104750001188019A23689A42284605D103B030BDDA
:104760000448FEF735FCF1E7FCF702FE00080020E4
:10477000203B002050F7000800000000000000006F
:1047800070B5184E82B00446336801930D46FEF7AB
:104790008FFD0CB3E16B94F8203029430A2BE163C1
:1047A00016D00B2B05D0019A33689A4218D102B06B
:1047B00070BDA36A8B43F6D1019A336800219A42F7
:1047C000A1620DD1204602B0BDE87040FEF7B8BE30
:1047D000A36A1942F0D1E6E70348FEF7F9FBD9E7EF
:1047E000FCF7C6FD00080020B0F70008000000003C
:1047F000F0B5134F83B006463B6801930D46FEF7B4
:1048000057FDB6B13468A6420DD0E3682B43E36090
:1048100015B12269134203D0D4E90101FFF7B0FFBB
:104820002468A642F1D1019A3B689A4205D103B0AF
:10483000F0BD0448FEF7CCFBE4E7FCF799FD00BFB0
:104840000008002090F700080000000000000000B1
:1048500070B50C4CC16082B0266801960A440060B5
:10486000019E02612268069D4060C0E905119642E2
:104870004FF00001C3618160056201D102B070BDDB
:10488000FCF776FD0008002000000000000000009A
:1048900030B50D4D83B02B6801930446FEF708FD3B
:1048A00001992A68E368A36100209142A0606361D6
:1048B00007D120466FF0010103B0BDE83040FFF79B
:1048C000EFBAFCF755FD00BF000800200000000013
:1048D00070B5164D82B004462B6801930E46FEF764
:1048E000E7FCFEF7E5FCD4E905239A42A36816D05D
:1048F0000133511CA36061611670D4E904329A42FD
:104900000AD220460021FFF79BFA0020019A2B686B
:104910009A4209D102B070BDE3686361F1E7002BF0
:10492000E6D06FF00300F1E7FCF722FD000800205D
:10493000F0B5234F83B03B68019304460E46202315
:1049400083F31188FFF7F4FBFEF7E2FBE36943B161
:104950002046984705E031462046FFF749FA051EF4
:1049600010DBFEF7A5FCA368002BF4D0A169206939
:104970004A1C013B8242A360A26128BFE3680D7814
:1049800028BFA361FEF7E4FBFFF7EAFB0D4B1A68B3
:104990009A4204D0996993688A689A4209D300239D
:1049A00083F31188019A3B689A42284605D103B0E7
:1049B000F0BD0548FEF70CFBF1E7FCF7D9FC00BFA2
:1049C00000080020203B0020C0F700080000000085
:1049D0002DE9F04FDFF8F490044685B0D9F80000D7
:1049E00003908A461D46D4F81C809346002A60D066
:1049F000202383F311880193FFF79AFBFEF788FBCE
:104A00002F4E0027B8F1000F07D02046C04704E022
:104A100029462046FFF7ECF960BBFEF749FCA36886
:104A2000002BF5D0A269013B511CA161A360137852
:104A30000AF8013B2369A2699A4224BFE368A36193
:104A4000FEF786FBFFF78CFB3368B34204D0B269F4
:104A50009B6892689A4228D3002383F31188013718
:104A6000BB4519D0019B83F31188FFF761FBFEF76B
:104A70004FFBC7E7FEF76CFBFFF772FB3368B342EF
:104A800007D0B2699B6892689A4202D20D48FEF73D
:104A90009FFA002383F31188039AD9F800309A42D1
:104AA00038460AD105B0BDE8F08F0648FEF790FA07
:104AB000D2E70548FEF78CFA9AE7FCF759FC00BFED
:104AC000203B0020C0F70008D0F7000800080020B5
:104AD00070B50B4D82602E68C16082B0C0E90000E5
:104AE00001960A44019E02612A68069C9642C0E92A
:104AF0000511C0E9073401D102B070BDFCF738FCE4
:104B0000000800200000000000000000000000007D
:104B100030B50D4D83B004462B680193FEF7C8FBFA
:104B2000D4E9032301982968A2619B1A8842626133
:104B3000A36007D120466FF0010103B0BDE830400B
:104B4000FFF7AEB9FCF714FC0008002000000000DD
:104B50002DE9F0412E4F82B03B6801930446884610
:104B60001646202383F31188FFF7E2FAFEF7D0FA06
:104B700005E031462046FFF73BF9051E2DDBFEF729
:104B800097FBA368002BF4D06269013B511C616163
:104B9000A36082F80080D4E904329A4224BFE3681B
:104BA0006361E3690BB120469847FEF7D1FAFFF73E
:104BB000D7FA184B1A689A4204D0996993688A68A0
:104BC0009A421ED3002585F31188019A3B689A42C8
:104BD00028461AD102B0BDE8F081FEF7B9FAFFF716
:104BE000BFFA0C4B1A689A4207D0996993688A6891
:104BF0009A4202D20848FEF7EBF9002383F31188AA
:104C0000E3E70548FEF7E4F9DCE7FCF7B1FB00BF9A
:104C100000080020203B0020C0F700080000000032
:104C200070B5154E82B0044633680193FEF740FB21
:104C3000FEF73EFBD4E905329342A36815D0206904
:104C4000511C0133A360A161814215780AD220462C
:104C50000021FFF7F5F82846019A33689A4209D1F6
:104C600002B070BDE368A361F1E7002BE7D06FF0FD
:104C70000200F1E7FCF77CFB0008002000000000C8
:104C80002DE9F04F04463B48D4F81C90006885B0ED
:104C90000D46039001931646002A61D04FF0200A7A
:104CA0008AF31188FFF744FAFEF732FA4FF0000852
:104CB000314FC346FEF7FCFAA368002B32D062697D
:104CC000013B511C6161A3602B781370D4E904325D
:104CD0009A4224BFE36863610135B9F1000F01D046
:104CE0002046C847FEF734FAFFF73AFA3B68BB4262
:104CF00007D0BA699B6892689A4202D21F48FEF7B1
:104D000067F98BF31188013E08F101081FD08AF37F
:104D10001188FFF70DFAFEF7FBF9FEF7C9FAA36851
:104D2000002BCCD101992046FFF762F80028C1D0B2
:104D3000FEF70EFAFFF714FA3B68BB4204D0BA69DB
:104D40009B6892689A420FD3002383F31188094B22
:104D5000039A1B689A4240460AD105B0BDE8F08F1D
:104D60000748FEF735F999E70448FEF731F9EBE714
:104D7000FCF7FEFA00080020203B0020C0F70008E6
:104D8000E0F7000800000000000000000000000044
:104D900030B50B490B4A0B680B4D0C4C83B022F01D
:104DA0000702019301980A4B09682A6023F0070360
:104DB0008842236001D103B030BDFCF7D9FA00BFAF
:104DC00000080020E74A0020944100209041002084
:104DD00000000220000000000000000000000000B1
:104DE00070B51C4E82B0336801930446202383F3D0
:104DF0001188FFF79DF9FEF78BF9FEF759FA164A6D
:104E0000164B15681B68E01D20F007005B1B9842DD
:104E10009ABF401910600025FEF79AF9FFF7A0F934
:104E20000F4B1A689A4204D0996993688A689A422B
:104E300009D3002383F31188019A33689A422846E4
:104E400005D102B070BD0748FEF7C2F8F1E7FCF7E4
:104E50008FFA00BF000800209441002090410020FC
:104E6000203B002000F800080000000000000000C7
:104E700000B50B4B0B481A6883B0019201991A6870
:104E8000094B036091424FF00003C0E9023305D1A2
:104E9000103003B05DF804EBFFF7AAB9FCF768FA2D
:104EA0000008002098410020E14D000800000000AB
:104EB00080B50D4A0D4982B000AF13687B604B6826
:104EC00023F001034B60EFF30983683383F3098810
:104ED000002383F3118879681368994202D1083757
:104EE000BD4680BDFCF744FA0008002030EF00E02A
:104EF000B0B5194C82B000AF23687B60202383F3E8
:104F00001188164B5B6813F4006308D183F3118892
:104F10007A6823689A421DD10837BD46B0BDF1EECC
:104F2000103AEFF309854FF080720D4B45F84C2C89
:104F3000DB6845F8083CA5F1680383F30988FEF7B0
:104F40003FFC18B1074B45F8503CE1E7064B45F8EC
:104F5000503CDDE7FCF70CFA0008002000ED00E013
:104F600030EF00E0E1020008F40200080000000059
:104F700010B5184C82B02368019302F0D1FD164899
:104F800004F0EEF800F0D4F800F00AF900F050F95F
:104F900000F07EF900F0ACF900F0DAF900F008FA60
:104FA00000F036FA01F084F800F08AFF01F050FCBE
:104FB00001F0BEFD01F084FA06F052F9019A23686F
:104FC0009A4204D102B0BDE8104001F099BDFCF74F
:104FD000CFF900BF00080020C0FD0008000000005D
:104FE000F0B51A4D83B02B68019391420E461446DA
:104FF000074619D38B1A1F2B16D806F01F03581C0F
:105000006209012376098340B24203F1FF3304F0C1
:105010001F0457F822000BD31840E040019A2B6878
:105020009A4210D103B0F0BD0948FDF7D1FFE4E783
:1050300057F82610C4F120020B4020FA04F403FABA
:1050400002F02043EAE7FCF793F900BF00080020D4
:1050500010F8000800000000000000000000000040
:10506000F0B51D4E83B033680193054670B37E22C0
:105070007F212846FFF7B4FF80B1012806D0002029
:10508000019A33689A4225D103B0F0BD28463022F8
:105090004521FFF7A5FF01308002F1E73E224921BB
:1050A0002846FFF79DFF2F22044631212846FFF7AF
:1050B00097FF5022074653212846FFF791FF0134FE
:1050C00002370938BC4004FA00F0D9E70348FDF77D
:1050D0007FFFCCE7FCF74CF90008002030F800080F
:1050E000F0B5104D83B02B680193044698B194F845
:1050F000D63094F8D770019994F8D4602A6894F85F
:10510000D5001B0403EB07633344914203EB0020FB
:1051100005D103B0F0BD0448FDF75AFFE7E7FCF7FF
:1051200027F900BF0008002050F800080000000028
:1051300000B5074B83B01A680192019A1B689A4226
:1051400004D103B05DF804EB02F0AABDFCF710F93E
:105150000008002000000000000000000000000027
:1051600000B50C4B83B01A680192012202700199BC
:105170001A6800239142C0E90133C0E90333436157
:1051800005D1183003B05DF804EBFFF731B8FCF738
:10519000EFF800BF00080020000000000000000041
:1051A00000B5074B83B01A680192019A1B689A42B6
:1051B00004D103B05DF804EB03F01ABBFCF7D8F898
:1051C00000080020000000000000000000000000B7
:1051D00030B5134B83B01A68019201220270019C12
:1051E0001968002200F1180300F11C054260836178
:1051F00000F1200200F12403C561026200F12805DC
:1052000000F1080243628C4200F110038562C0E99C
:105210000222C0E9043301D103B030BDFCF7A8F885
:105220000008002000000000000000000000000056
:1052300000B5074B83B01A680192019A1B689A4225
:1052400004D103B05DF804EB03F06ABFFCF790F8FB
:105250000008002000000000000000000000000026
:1052600000B50A4B83B01A680192012202700199BD
:105270001A6800239142C0E9043305D1183003B005
:105280005DF804EBFEF7B4BFFCF772F800080020ED
:1052900000B5074B83B01A680192019A1B689A42C5
:1052A00004D103B05DF804EB03F0C2BAFCF760F878
:1052B00000080020000000000000000000000000C6
:1052C00000B5084B83B01A68019201220270019A5E
:1052D0001B6800219A42416002D103B05DF804FBD3
:1052E000FCF746F800080020000000000000000065
:1052F00000B5074B83B01A680192019A1B689A4265
:1053000004D103B05DF804EB05F082BBFCF730F884
:105310000008002000000000000000000000000065
:1053200000B5084B83B01A68019201220270019AFD
:105330001B6800219A42416002D103B05DF804FB72
:10534000FCF716F800080020000000000000000034
:1053500000B5074B83B01A680192019A1B689A4204
:1053600004D103B05DF804EB04F012B9FCF700F8C7
:105370000008002000000000000000000000000005
:1053800000B50A4B83B01A68019201220270019A9B
:105390001B6800219A42416005D10C3003B05DF8D2
:1053A00004EBFEF725BFFBF7E3FF00BF000800207A
:1053B00000B5074B83B01A680192019A1B689A42A4
:1053C00004D103B05DF804EB05F0F2B8FBF7D0FFB1
:1053D00000080020000000000000000000000000A5
:1053E00000B5084B83B01A68019201220270019A3D
:1053F0001B6800219A42416002D103B05DF804FBB2
:10540000FBF7B6FF000800200000000000000000CD
:1054100000B5074B83B01A680192019A1B689A4243
:1054200004D103B05DF804EB05F0E2BBFBF7A0FF8D
:105430000008002000000000000000000000000044
:1054400000B5094B83B01A680192012202700199DC
:105450001A68002391424360C360037402D103B011
:105460005DF804FBFBF784FF00080020000000004B
:1054700070B5214E82B0336801930D460446002872
:1054800033D0002931D0202383F31188FEF750FE5A
:10549000FDF73EFE2378013B012B02D91748FDF7AB
:1054A00097FD65606B68A360204605F0E1FB002274
:1054B0000223E2602370FDF74BFEFEF751FE104B16
:1054C0001A689A4204D0996993688A689A4208D304
:1054D000002383F31188019A33689A4209D102B0FC
:1054E00070BD0848FDF774FDF2E70448FDF770FD54
:1054F000C9E7FBF73DFF00BF0008002080F8000867
:10550000203B002070F800080000000000000000B0
:1055100070B51C4E82B0336801930C46054650B3FB
:10552000202383F31188FEF703FEFDF7F1FD2B78AE
:10553000022B02D01448FDF74BFDAB69AC60013C77
:10554000DC62FDF705FEFEF70BFE104B1A689A426F
:1055500004D0996993688A689A4208D3002383F338
:105560001188019A33689A4209D102B070BD084887
:10557000FDF72EFDF2E70448FDF72AFDD0E7FBF723
:10558000F7FE00BF0008002090F80008203B002034
:1055900070F800080000000000000000000000009B
:1055A000F0B5214E83B0336801930D46174604468B
:1055B00078B3037C8B422CD9202383F31188FEF728
:1055C000B7FDFDF7A5FD2378022B02D01748FDF7A4
:1055D000FFFCE3680122AA401343E3603A462946F0
:1055E000204605F02DFCFDF7B3FDFEF7B9FD104B8D
:1055F0001A689A4204D0996993688A689A420CD3CF
:10560000002383F31188019A33689A4209D103B0C9
:10561000F0BD0648FDF7DCFCCEE70648FDF7D8FCF8
:10562000EEE7FBF7A5FE00BF00080020A0F8000889
:10563000203B002070F8000800000000000000007F
:1056400070B5204E82B0336801930D46044678B39E
:10565000037C8B422CD9202383F31188FEF768FD4D
:10566000FDF756FD2378022B02D01748FDF7B0FC5A
:10567000E3680122AA4023EA0203E36029462046A8
:1056800005F0F6FBFDF764FDFEF76AFD0F4B1A68A7
:105690009A4204D0996993688A689A420CD300238D
:1056A00083F31188019A33689A4209D102B070BD20
:1056B0000548FDF78DFCCEE70548FDF789FCEEE7D0
:1056C000FBF756FE00080020C0F80008203B002031
:1056D00070F800080000000000000000000000005A
:1056E00030B51E4D83B02B680193044680B3202350
:1056F00083F31188FEF71CFDFDF70AFD2378022BCA
:1057000002D01748FDF764FC63689B68E3B120464C
:1057100005F0CEFBFDF71CFDFEF722FD114B1A68CC
:105720009A4204D0996993688A689A4208D3002300
:1057300083F31188019A2B689A420DD103B030BDD2
:105740000948FDF745FCF2E70548FDF741FCDEE7B7
:105750000348FDF73DFCCAE7FBF70AFE00080020FE
:10576000E0F80008203B002070F80008000000006E
:1057700070B5294E82B0336801930D460446002867
:1057800032D0037C8B422FD9202383F31188FEF77C
:10579000CFFCFDF7BDFC2378022B02D01F48FDF79C
:1057A00017FCE368EB40DB0726D5636803EBC50312
:1057B0001B6953B32946204605F09AFBFDF7C8FC48
:1057C000FEF7CEFC164B1A689A4204D0996993688A
:1057D0008A689A420CD3002383F31188019A3368B4
:1057E0009A4216D102B070BD0C48FDF7F1FBCBE731
:1057F0000C48FDF7EDFBEEE70848FDF7E9FB6368B1
:1058000003EBC5031B69002BD4D10448FDF7E0FB73
:10581000D0E7FBF7ADFD00BF0008002000F900084D
:10582000203B002070F8000800000000000000008D
:1058300070B5104D82B02B6801930E46044650B1EE
:1058400049B12379052B0CD00120019A2B689A428B
:105850000ED102B070BD0848FDF7BAFB2379052BC5
:10586000F2D1A36A73604FF4007333600020ECE759
:10587000FBF77EFD0008002090F900080000000002
:105880002DE9F047DFF89C8386B002AFD8F80030EE
:10589000FB600446002800F019812379022B01D017
:1058A000052B2BD103232371204603F059F8002246
:1058B0001146204603F0CCF807F108034FF4D572E7
:1058C0000821204603F00CF9E0B9BB680122C3F3BC
:1058D00003239342226300F0FD80204603F078F812
:1058E000022323710125FA68D8F800309A4228462D
:1058F00040F046811037BD46BDE8F087C048FDF74F
:1059000067FBCFE707F1080300223721204603F0A9
:10591000E7F8002840F0BE80BB68BA4A1A40002A67
:1059200040F0B88022631146204603F091F8266BC0
:1059300006F00F03022B00F0AF80B34EB34ADFF83E
:10594000C492012B18BF1646642504E0013DC4D063
:105950000A20FEF715F907F1080300223721204637
:1059600003F0BEF80028B8D1BB6813EA090FB4D120
:1059700007F1080332462921204603F089F8002860
:10598000ABD1BB68002BE1DA5B0003D5236B43F09E
:105990001003236304F1080300220221204603F0D0
:1059A00097F9002899D1024604F1380303212046D3
:1059B00003F096F8002890D104F118052B46A26B4D
:1059C0000921204603F084F9002886D13B1DA26BF3
:1059D0000721204603F084F8824600287FF47DAF3B
:1059E000236B03F00F03022B00F097806E467E229C
:1059F00090B07F212846FFF7F3FA0DF1080900283F
:105A000079D10146B546204602F0CAFF236B03F068
:105A10000F03022B00F096802846FFF721FBA062BF
:105A20003B1D4FF400721021204603F059F8054643
:105A300000287FF452AF7B68724E33427FF44DAF43
:105A4000236B03F00F03012B40F2B280022B7FF493
:105A500044AFE36A1A79012A00F0A88017D3022A1A
:105A600040F0E2806A4E1979204602F0C9FF07F142
:105A7000080332460621204603F032F800287FF45E
:105A80002CAFBA685F4B1340002B7FF426AF052381
:105A9000237128E7022323635E4E642505E0013D60
:105AA0003FF41BAF0A20FEF76BF807F108033246FC
:105AB0000121204602F0ECFF00287FF40EAFBB6806
:105AC000002BECDA5B007FF565AF5FE74C48FDF734
:105AD0007FFAE2E6024607F108033721204602F08A
